{
  "contractName": "COB_Test_Contract",
  "abi": [
    {
      "inputs": [
        {
          "internalType": "address payable",
          "name": "_wallet",
          "type": "address"
        },
        {
          "internalType": "address",
          "name": "_token",
          "type": "address"
        }
      ],
      "payable": false,
      "stateMutability": "nonpayable",
      "type": "constructor"
    },
    {
      "payable": true,
      "stateMutability": "payable",
      "type": "fallback"
    },
    {
      "constant": true,
      "inputs": [
        {
          "internalType": "address",
          "name": "",
          "type": "address"
        }
      ],
      "name": "balance",
      "outputs": [
        {
          "internalType": "uint256",
          "name": "",
          "type": "uint256"
        }
      ],
      "payable": false,
      "stateMutability": "view",
      "type": "function"
    },
    {
      "constant": true,
      "inputs": [],
      "name": "token",
      "outputs": [
        {
          "internalType": "address",
          "name": "",
          "type": "address"
        }
      ],
      "payable": false,
      "stateMutability": "view",
      "type": "function"
    },
    {
      "constant": true,
      "inputs": [
        {
          "internalType": "uint256",
          "name": "",
          "type": "uint256"
        }
      ],
      "name": "users",
      "outputs": [
        {
          "internalType": "uint256",
          "name": "id",
          "type": "uint256"
        },
        {
          "internalType": "string",
          "name": "firstName",
          "type": "string"
        },
        {
          "internalType": "string",
          "name": "surname",
          "type": "string"
        }
      ],
      "payable": false,
      "stateMutability": "view",
      "type": "function"
    },
    {
      "constant": false,
      "inputs": [],
      "name": "purchaseToken",
      "outputs": [],
      "payable": true,
      "stateMutability": "payable",
      "type": "function"
    },
    {
      "constant": false,
      "inputs": [
        {
          "internalType": "string",
          "name": "firstName",
          "type": "string"
        },
        {
          "internalType": "string",
          "name": "surname",
          "type": "string"
        }
      ],
      "name": "addUser",
      "outputs": [],
      "payable": false,
      "stateMutability": "nonpayable",
      "type": "function"
    },
    {
      "constant": true,
      "inputs": [],
      "name": "getUserCount",
      "outputs": [
        {
          "internalType": "uint256",
          "name": "",
          "type": "uint256"
        }
      ],
      "payable": false,
      "stateMutability": "view",
      "type": "function"
    }
  ],
  "bytecode": "0x608060405234801561001057600080fd5b506040516106ad3803806106ad8339818101604052604081101561003357600080fd5b508051602090910151600380546001600160a01b039384166001600160a01b031991821617909155600480549390921692169190911790556106338061007a6000396000f3fe6080604052600436106100555760003560e01c8063079eaf341461005f578063365b98b214610199578063a95c4d6214610055578063b5cb15f7146102a8578063e3d670d7146102cf578063fc0c546a14610302575b61005d610333565b005b34801561006b57600080fd5b5061005d6004803603604081101561008257600080fd5b81019060208101813564010000000081111561009d57600080fd5b8201836020820111156100af57600080fd5b803590602001918460018302840111640100000000831117156100d157600080fd5b91908080601f016020809104026020016040519081016040528093929190818152602001838380828437600092019190915250929594936020810193503591505064010000000081111561012457600080fd5b82018360208201111561013657600080fd5b8035906020019184600183028401116401000000008311171561015857600080fd5b91908080601f016020809104026020016040519081016040528093929190818152602001838380828437600092019190915250929550610386945050505050565b3480156101a557600080fd5b506101c3600480360360208110156101bc57600080fd5b50356103fb565b604051808481526020018060200180602001838103835285818151815260200191508051906020019080838360005b8381101561020a5781810151838201526020016101f2565b50505050905090810190601f1680156102375780820380516001836020036101000a031916815260200191505b50838103825284518152845160209182019186019080838360005b8381101561026a578181015183820152602001610252565b50505050905090810190601f1680156102975780820380516001836020036101000a031916815260200191505b509550505050505060405180910390f35b3480156102b457600080fd5b506102bd610533565b60408051918252519081900360200190f35b3480156102db57600080fd5b506102bd600480360360208110156102f257600080fd5b50356001600160a01b031661053a565b34801561030e57600080fd5b5061031761054c565b604080516001600160a01b039092168252519081900360200190f35b336000908152600260205260408082208054600101905560035490516001600160a01b0391909116913480156108fc02929091818181858888f19350505050158015610383573d6000803e3d6000fd5b50565b604080516060810182526000805480835260208084018781528486018790529183526001808252949092208351815590518051939491936103cf93928501929190910190610566565b50604082015180516103eb916002840191602090910190610566565b509050506103f761055b565b5050565b600160208181526000928352604092839020805481840180548651600296821615610100026000190190911695909504601f810185900485028601850190965285855290949193929091908301828280156104975780601f1061046c57610100808354040283529160200191610497565b820191906000526020600020905b81548152906001019060200180831161047a57829003601f168201915b50505060028085018054604080516020601f60001961010060018716150201909416959095049283018590048502810185019091528181529596959450909250908301828280156105295780601f106104fe57610100808354040283529160200191610529565b820191906000526020600020905b81548152906001019060200180831161050c57829003601f168201915b5050505050905083565b6000545b90565b60026020526000908152604090205481565b6004546001600160a01b031681565b600080546001019055565b828054600181600116156101000203166002900490600052602060002090601f016020900481019282601f106105a757805160ff19168380011785556105d4565b828001600101855582156105d4579182015b828111156105d45782518255916020019190600101906105b9565b506105e09291506105e4565b5090565b61053791905b808211156105e057600081556001016105ea56fea265627a7a7231582039123814a61798b6fc999a7f665f95c0bc92c6378743bb64439d21473654193064736f6c63430005100032",
  "source": "pragma solidity ^0.5.1;\r\n\r\ncontract ERC20Token\r\n{\r\n    mapping(address => uint256) public balance;\r\n    \r\n    function mint() public\r\n    {\r\n        balance[tx.origin] ++;\r\n    }\r\n}\r\n\r\ncontract COB_Test_Contract \r\n{\r\n    uint256 private uCount;\r\n    \r\n    mapping(uint => User) public users;\r\n    mapping(address => uint256) public balance;\r\n    \r\n    address payable wallet;\r\n    address public token;\r\n    \r\n    constructor(address payable _wallet, address _token) public\r\n    {\r\n        wallet = _wallet;\r\n        token = _token;\r\n    }\r\n    \r\n    function() external payable\r\n    {\r\n        purchaseToken();\r\n    }\r\n    \r\n    function purchaseToken() public payable\r\n    {\r\n        balance[msg.sender] += 1;\r\n        \r\n        wallet.transfer(msg.value);\r\n    }\r\n    \r\n    struct User\r\n    {\r\n        uint id;\r\n        string firstName;\r\n        string surname;\r\n    }\r\n    \r\n    function addUser(string memory firstName, string memory surname) public\r\n    {  \r\n        users[uCount] = User(uCount, firstName, surname);\r\n        incUserCount();\r\n    }\r\n    \r\n    function getUserCount() public view returns(uint)\r\n    {\r\n        return uCount;\r\n    }\r\n    \r\n    function incUserCount() internal\r\n    {\r\n        uCount++;\r\n    }\r\n}",
  "sourcePath": "C:\\Users\\Harley\\source\\repos\\blockchain.uat\\contracts\\COB_Test_Contract.sol",
  "compiler": {
    "name": "solc",
    "version": "0.5.16+commit.9c3226ce.Emscripten.clang"
  },
  "schemaVersion": "3.4.3",
  "updatedAt": "2021-10-20T07:47:53.902Z",
  "devdoc": {
    "methods": {}
  },
  "userdoc": {
    "methods": {}
  }
}