{
  "contractName": "Counter",
  "abi": [
    {
      "constant": false,
      "inputs": [],
      "name": "increase",
      "outputs": [],
      "payable": false,
      "stateMutability": "nonpayable",
      "type": "function"
    },
    {
      "constant": false,
      "inputs": [],
      "name": "decrease",
      "outputs": [],
      "payable": false,
      "stateMutability": "nonpayable",
      "type": "function"
    },
    {
      "constant": true,
      "inputs": [],
      "name": "getCount",
      "outputs": [
        {
          "internalType": "uint256",
          "name": "",
          "type": "uint256"
        }
      ],
      "payable": false,
      "stateMutability": "view",
      "type": "function"
    }
  ],
  "bytecode": "0x60806040526000805534801561001457600080fd5b5060b9806100236000396000f3fe6080604052348015600f57600080fd5b5060043610603c5760003560e01c8063a87d942c146041578063d732d955146059578063e8927fbc146061575b600080fd5b60476067565b60408051918252519081900360200190f35b605f606d565b005b605f6079565b60005490565b60008054600019019055565b60008054600101905556fea265627a7a723158203882a2da314109c5017d65c486704e686d32611cf1a6399cf1ef04c5f131c0ac64736f6c63430005100032",
  "source": "pragma solidity ^0.5.1;\r\n\r\ncontract Counter\r\n{\r\n    uint256 counter = 0;\r\n    \r\n    function increase() public\r\n    {\r\n        counter++;\r\n    }\r\n    \r\n    function decrease() public\r\n    {\r\n        counter--;\r\n    }\r\n    \r\n    function getCount() public view returns(uint256)\r\n    {\r\n        return counter;\r\n    }\r\n}",
  "sourcePath": "C:\\Users\\Harley\\source\\repos\\blockchain.uat\\contracts\\Counter.sol",
  "compiler": {
    "name": "solc",
    "version": "0.5.16+commit.9c3226ce.Emscripten.clang"
  },
  "schemaVersion": "3.4.3",
  "updatedAt": "2021-10-20T07:47:53.909Z",
  "devdoc": {
    "methods": {}
  },
  "userdoc": {
    "methods": {}
  }
}