{
  "contractName": "ERC20Token",
  "abi": [
    {
      "constant": true,
      "inputs": [
        {
          "internalType": "address",
          "name": "",
          "type": "address"
        }
      ],
      "name": "balance",
      "outputs": [
        {
          "internalType": "uint256",
          "name": "",
          "type": "uint256"
        }
      ],
      "payable": false,
      "stateMutability": "view",
      "type": "function"
    },
    {
      "constant": false,
      "inputs": [],
      "name": "mint",
      "outputs": [],
      "payable": false,
      "stateMutability": "nonpayable",
      "type": "function"
    }
  ],
  "bytecode": "0x608060405234801561001057600080fd5b5060d38061001f6000396000f3fe6080604052348015600f57600080fd5b506004361060325760003560e01c80631249c58b146037578063e3d670d714603f575b600080fd5b603d6074565b005b606260048036036020811015605357600080fd5b50356001600160a01b0316608c565b60408051918252519081900360200190f35b32600090815260208190526040902080546001019055565b6000602081905290815260409020548156fea265627a7a72315820af47d31228eac5a690ffb3389ebea303e6863cc1097a71f5d7b4e7a42945f04064736f6c63430005100032",
  "source": "pragma solidity ^0.5.1;\r\n\r\ncontract ERC20Token\r\n{\r\n    mapping(address => uint256) public balance;\r\n    \r\n    function mint() public\r\n    {\r\n        balance[tx.origin] ++;\r\n    }\r\n}\r\n\r\ncontract COB_Test_Contract \r\n{\r\n    uint256 private uCount;\r\n    \r\n    mapping(uint => User) public users;\r\n    mapping(address => uint256) public balance;\r\n    \r\n    address payable wallet;\r\n    address public token;\r\n    \r\n    constructor(address payable _wallet, address _token) public\r\n    {\r\n        wallet = _wallet;\r\n        token = _token;\r\n    }\r\n    \r\n    function() external payable\r\n    {\r\n        purchaseToken();\r\n    }\r\n    \r\n    function purchaseToken() public payable\r\n    {\r\n        balance[msg.sender] += 1;\r\n        \r\n        wallet.transfer(msg.value);\r\n    }\r\n    \r\n    struct User\r\n    {\r\n        uint id;\r\n        string firstName;\r\n        string surname;\r\n    }\r\n    \r\n    function addUser(string memory firstName, string memory surname) public\r\n    {  \r\n        users[uCount] = User(uCount, firstName, surname);\r\n        incUserCount();\r\n    }\r\n    \r\n    function getUserCount() public view returns(uint)\r\n    {\r\n        return uCount;\r\n    }\r\n    \r\n    function incUserCount() internal\r\n    {\r\n        uCount++;\r\n    }\r\n}",
  "sourcePath": "C:\\Users\\Harley\\source\\repos\\blockchain.uat\\contracts\\COB_Test_Contract.sol",
  "compiler": {
    "name": "solc",
    "version": "0.5.16+commit.9c3226ce.Emscripten.clang"
  },
  "schemaVersion": "3.4.3",
  "updatedAt": "2021-10-20T07:47:53.906Z",
  "devdoc": {
    "methods": {}
  },
  "userdoc": {
    "methods": {}
  }
}