{
  "contractName": "IoT",
  "abi": [
    {
      "inputs": [],
      "payable": false,
      "stateMutability": "nonpayable",
      "type": "constructor"
    },
    {
      "anonymous": false,
      "inputs": [
        {
          "indexed": false,
          "internalType": "uint256",
          "name": "id",
          "type": "uint256"
        },
        {
          "indexed": false,
          "internalType": "bool",
          "name": "completed",
          "type": "bool"
        }
      ],
      "name": "TaskCompleted",
      "type": "event"
    },
    {
      "anonymous": false,
      "inputs": [
        {
          "indexed": false,
          "internalType": "uint256",
          "name": "id",
          "type": "uint256"
        },
        {
          "indexed": false,
          "internalType": "string",
          "name": "timestamp",
          "type": "string"
        },
        {
          "indexed": false,
          "internalType": "string",
          "name": "desc",
          "type": "string"
        },
        {
          "indexed": false,
          "internalType": "string",
          "name": "entityType",
          "type": "string"
        },
        {
          "indexed": false,
          "internalType": "uint256",
          "name": "v1",
          "type": "uint256"
        },
        {
          "indexed": false,
          "internalType": "uint256",
          "name": "v2",
          "type": "uint256"
        },
        {
          "indexed": false,
          "internalType": "uint256",
          "name": "v3",
          "type": "uint256"
        },
        {
          "indexed": false,
          "internalType": "uint256",
          "name": "latitude",
          "type": "uint256"
        },
        {
          "indexed": false,
          "internalType": "uint256",
          "name": "longitude",
          "type": "uint256"
        }
      ],
      "name": "TaskCreated",
      "type": "event"
    },
    {
      "constant": true,
      "inputs": [],
      "name": "payload",
      "outputs": [
        {
          "internalType": "string",
          "name": "",
          "type": "string"
        }
      ],
      "payable": false,
      "stateMutability": "view",
      "type": "function"
    },
    {
      "constant": true,
      "inputs": [],
      "name": "taskCount",
      "outputs": [
        {
          "internalType": "uint256",
          "name": "",
          "type": "uint256"
        }
      ],
      "payable": false,
      "stateMutability": "view",
      "type": "function"
    },
    {
      "constant": true,
      "inputs": [
        {
          "internalType": "uint256",
          "name": "",
          "type": "uint256"
        }
      ],
      "name": "tasks",
      "outputs": [
        {
          "internalType": "uint256",
          "name": "id",
          "type": "uint256"
        },
        {
          "internalType": "string",
          "name": "timestamp",
          "type": "string"
        },
        {
          "internalType": "string",
          "name": "desc",
          "type": "string"
        },
        {
          "internalType": "string",
          "name": "entityType",
          "type": "string"
        },
        {
          "internalType": "uint256",
          "name": "v1",
          "type": "uint256"
        },
        {
          "internalType": "uint256",
          "name": "v2",
          "type": "uint256"
        },
        {
          "internalType": "uint256",
          "name": "v3",
          "type": "uint256"
        },
        {
          "internalType": "uint256",
          "name": "latitude",
          "type": "uint256"
        },
        {
          "internalType": "uint256",
          "name": "longitude",
          "type": "uint256"
        }
      ],
      "payable": false,
      "stateMutability": "view",
      "type": "function"
    },
    {
      "constant": false,
      "inputs": [
        {
          "internalType": "string",
          "name": "content",
          "type": "string"
        }
      ],
      "name": "setPayload",
      "outputs": [],
      "payable": false,
      "stateMutability": "nonpayable",
      "type": "function"
    },
    {
      "constant": false,
      "inputs": [
        {
          "internalType": "uint256",
          "name": "_id",
          "type": "uint256"
        },
        {
          "internalType": "string",
          "name": "_timestamp",
          "type": "string"
        },
        {
          "internalType": "string",
          "name": "_desc",
          "type": "string"
        },
        {
          "internalType": "string",
          "name": "_entityType",
          "type": "string"
        },
        {
          "internalType": "uint256",
          "name": "_v1",
          "type": "uint256"
        },
        {
          "internalType": "uint256",
          "name": "_v2",
          "type": "uint256"
        },
        {
          "internalType": "uint256",
          "name": "_v3",
          "type": "uint256"
        },
        {
          "internalType": "uint256",
          "name": "_latitude",
          "type": "uint256"
        },
        {
          "internalType": "uint256",
          "name": "_longitude",
          "type": "uint256"
        }
      ],
      "name": "createTask",
      "outputs": [],
      "payable": false,
      "stateMutability": "nonpayable",
      "type": "function"
    },
    {
      "constant": false,
      "inputs": [
        {
          "internalType": "uint256",
          "name": "_id",
          "type": "uint256"
        }
      ],
      "name": "toggleCompleted",
      "outputs": [],
      "payable": false,
      "stateMutability": "nonpayable",
      "type": "function"
    },
    {
      "constant": true,
      "inputs": [],
      "name": "sayHello",
      "outputs": [
        {
          "internalType": "string",
          "name": "",
          "type": "string"
        }
      ],
      "payable": false,
      "stateMutability": "pure",
      "type": "function"
    }
  ],
  "bytecode": "0x6080604052600080553480156200001557600080fd5b5062000092600160405180604001604052806009815260200168074696d657374616d760bc1b815250604051806040016040528060048152602001636465736360e01b8152506040518060400160405280600a815260200169656e746974795479706560b01b81525060018060018060016200009860201b60201c565b620003d7565b60008054600190810180835560408051610120810182528d815260208082018e81528284018e9052606083018d9052608083018c905260a083018b905260c083018a905260e083018990526101008301889052938652600281529190942084518155915180519293620001149390850192919091019062000332565b50604082015180516200013291600284019160209091019062000332565b50606082015180516200015091600384019160209091019062000332565b506080820151816004015560a0820151816005015560c0820151816006015560e0820151816007015561010082015181600801559050507fd0b72bc928f400d7f106f16311c510914976496970c9550f2f9e48bdb343a53a898989898989898989604051808a815260200180602001806020018060200189815260200188815260200187815260200186815260200185815260200184810384528c818151815260200191508051906020019080838360005b838110156200021c57818101518382015260200162000202565b50505050905090810190601f1680156200024a5780820380516001836020036101000a031916815260200191505b5084810383528b5181528b516020918201918d019080838360005b838110156200027f57818101518382015260200162000265565b50505050905090810190601f168015620002ad5780820380516001836020036101000a031916815260200191505b5084810382528a5181528a516020918201918c019080838360005b83811015620002e2578181015183820152602001620002c8565b50505050905090810190601f168015620003105780820380516001836020036101000a031916815260200191505b509c5050505050505050505050505060405180910390a1505050505050505050565b828054600181600116156101000203166002900490600052602060002090601f016020900481019282601f106200037557805160ff1916838001178555620003a5565b82800160010185558215620003a5579182015b82811115620003a557825182559160200191906001019062000388565b50620003b3929150620003b7565b5090565b620003d491905b80821115620003b35760008155600101620003be565b90565b610b5580620003e76000396000f3fe608060405234801561001057600080fd5b506004361061007d5760003560e01c8063a878f8581161005b578063a878f858146103f9578063b6cb58a514610476578063e1ad769914610490578063ef5fb05b146105345761007d565b806303fa138714610082578063455f5024146102515780638d9776721461026e575b600080fd5b61024f600480360361012081101561009957600080fd5b81359190810190604081016020820135600160201b8111156100ba57600080fd5b8201836020820111156100cc57600080fd5b803590602001918460018302840111600160201b831117156100ed57600080fd5b91908080601f0160208091040260200160405190810160405280939291908181526020018383808284376000920191909152509295949360208101935035915050600160201b81111561013f57600080fd5b82018360208201111561015157600080fd5b803590602001918460018302840111600160201b8311171561017257600080fd5b91908080601f0160208091040260200160405190810160405280939291908181526020018383808284376000920191909152509295949360208101935035915050600160201b8111156101c457600080fd5b8201836020820111156101d657600080fd5b803590602001918460018302840111600160201b831117156101f757600080fd5b91908080601f016020809104026020016040519081016040528093929190818152602001838380828437600092019190915250929550508235935050506020810135906040810135906060810135906080013561053c565b005b61024f6004803603602081101561026757600080fd5b50356107c7565b61028b6004803603602081101561028457600080fd5b50356107ca565b604051808a815260200180602001806020018060200189815260200188815260200187815260200186815260200185815260200184810384528c818151815260200191508051906020019080838360005b838110156102f45781810151838201526020016102dc565b50505050905090810190601f1680156103215780820380516001836020036101000a031916815260200191505b5084810383528b5181528b516020918201918d019080838360005b8381101561035457818101518382015260200161033c565b50505050905090810190601f1680156103815780820380516001836020036101000a031916815260200191505b5084810382528a5181528a516020918201918c019080838360005b838110156103b457818101518382015260200161039c565b50505050905090810190601f1680156103e15780820380516001836020036101000a031916815260200191505b509c5050505050505050505050505060405180910390f35b6104016109af565b6040805160208082528351818301528351919283929083019185019080838360005b8381101561043b578181015183820152602001610423565b50505050905090810190601f1680156104685780820380516001836020036101000a031916815260200191505b509250505060405180910390f35b61047e610a3c565b60408051918252519081900360200190f35b61024f600480360360208110156104a657600080fd5b810190602081018135600160201b8111156104c057600080fd5b8201836020820111156104d257600080fd5b803590602001918460018302840111600160201b831117156104f357600080fd5b91908080601f016020809104026020016040519081016040528093929190818152602001838380828437600092019190915250929550610a42945050505050565b610401610a59565b60008054600190810180835560408051610120810182528d815260208082018e81528284018e9052606083018d9052608083018c905260a083018b905260c083018a905260e0830189905261010083018890529386526002815291909420845181559151805192936105b693908501929190910190610a88565b50604082015180516105d2916002840191602090910190610a88565b50606082015180516105ee916003840191602090910190610a88565b506080820151816004015560a0820151816005015560c0820151816006015560e0820151816007015561010082015181600801559050507fd0b72bc928f400d7f106f16311c510914976496970c9550f2f9e48bdb343a53a898989898989898989604051808a815260200180602001806020018060200189815260200188815260200187815260200186815260200185815260200184810384528c818151815260200191508051906020019080838360005b838110156106b85781810151838201526020016106a0565b50505050905090810190601f1680156106e55780820380516001836020036101000a031916815260200191505b5084810383528b5181528b516020918201918d019080838360005b83811015610718578181015183820152602001610700565b50505050905090810190601f1680156107455780820380516001836020036101000a031916815260200191505b5084810382528a5181528a516020918201918c019080838360005b83811015610778578181015183820152602001610760565b50505050905090810190601f1680156107a55780820380516001836020036101000a031916815260200191505b509c5050505050505050505050505060405180910390a1505050505050505050565b50565b60026020818152600092835260409283902080546001808301805487519281161561010002600019011695909504601f81018590048502820185019096528581529094919390929091908301828280156108655780601f1061083a57610100808354040283529160200191610865565b820191906000526020600020905b81548152906001019060200180831161084857829003601f168201915b50505060028085018054604080516020601f60001961010060018716150201909416959095049283018590048502810185019091528181529596959450909250908301828280156108f75780601f106108cc576101008083540402835291602001916108f7565b820191906000526020600020905b8154815290600101906020018083116108da57829003601f168201915b5050505060038301805460408051602060026001851615610100026000190190941693909304601f81018490048402820184019092528181529495949350908301828280156109875780601f1061095c57610100808354040283529160200191610987565b820191906000526020600020905b81548152906001019060200180831161096a57829003601f168201915b5050505050908060040154908060050154908060060154908060070154908060080154905089565b60018054604080516020600284861615610100026000190190941693909304601f81018490048402820184019092528181529291830182828015610a345780601f10610a0957610100808354040283529160200191610a34565b820191906000526020600020905b815481529060010190602001808311610a1757829003601f168201915b505050505081565b60005481565b8051610a55906001906020840190610a88565b5050565b6040805180820190915260148152732d2d5570646174656420436f6e74726163742d2d60601b60208201525b90565b828054600181600116156101000203166002900490600052602060002090601f016020900481019282601f10610ac957805160ff1916838001178555610af6565b82800160010185558215610af6579182015b82811115610af6578251825591602001919060010190610adb565b50610b02929150610b06565b5090565b610a8591905b80821115610b025760008155600101610b0c56fea265627a7a723158201c8f8223e328fa3f2ffde369bdff1eddc038260cf11a6cc7d08d65403afee82f64736f6c63430005100032",
  "source": "pragma solidity >= 0.5.0 < 0.7.0;\r\n\r\ncontract IoT {\r\n  uint public taskCount = 0;\r\n  string public payload;\r\n\r\n  function setPayload(string memory content) public {\r\n    payload = content;\r\n  }\r\n\r\n  struct Task {\r\n    uint id;\r\n    string timestamp;\r\n    string desc;\r\n    string entityType;\r\n    uint v1;\r\n    uint v2;\r\n    uint v3;\r\n    uint latitude;\r\n    uint longitude;\r\n  }\r\n\r\n  mapping(uint => Task) public tasks;\r\n\r\n  event TaskCreated(\r\n    uint id,\r\n    string timestamp,\r\n    string desc,\r\n    string entityType,\r\n    uint v1,\r\n    uint v2,\r\n    uint v3,\r\n    uint latitude,\r\n    uint longitude\r\n  );\r\n\r\n  event TaskCompleted(\r\n    uint id,\r\n    bool completed\r\n  );\r\n\r\n  constructor() public {\r\n    createTask(1, \"timestamp\", \"desc\", \"entityType\", 1, 1, 1, 1, 1);\r\n  }\r\n\r\n  function createTask(uint _id, string memory _timestamp, string memory _desc, string memory _entityType, uint _v1, uint _v2, uint _v3, uint _latitude, uint _longitude) public {\r\n    taskCount ++;\r\n    tasks[taskCount] = Task(_id, _timestamp, _desc, _entityType, _v1, _v2, _v3, _latitude, _longitude);\r\n    emit TaskCreated(_id, _timestamp, _desc, _entityType, _v1, _v2, _v3, _latitude, _longitude);\r\n  }\r\n\r\n  function toggleCompleted(uint _id) public {\r\n    //Task memory _task = tasks[_id];\r\n    //_task.completed = !_task.completed;\r\n    //tasks[_id] = _task;\r\n    //emit TaskCompleted(_id, _task.completed);\r\n  }\r\n\r\n  function sayHello() public pure returns (string memory) {\r\n        return '--Updated Contract--';\r\n  }\r\n}",
  "sourcePath": "C:\\Users\\Harley\\source\\repos\\blockchain.uat\\contracts\\IoT.sol",
  "compiler": {
    "name": "solc",
    "version": "0.5.16+commit.9c3226ce.Emscripten.clang"
  },
  "schemaVersion": "3.4.3",
  "updatedAt": "2021-09-28T04:18:07.081Z",
  "networkType": "ethereum",
  "devdoc": {
    "methods": {}
  },
  "userdoc": {
    "methods": {}
  }
}