{
  "contractName": "IoT",
  "abi": [
    {
      "inputs": [],
      "payable": false,
      "stateMutability": "nonpayable",
      "type": "constructor"
    },
    {
      "anonymous": false,
      "inputs": [
        {
          "indexed": false,
          "internalType": "uint256",
          "name": "id",
          "type": "uint256"
        },
        {
          "indexed": false,
          "internalType": "bool",
          "name": "completed",
          "type": "bool"
        }
      ],
      "name": "TaskCompleted",
      "type": "event"
    },
    {
      "anonymous": false,
      "inputs": [
        {
          "indexed": false,
          "internalType": "uint256",
          "name": "id",
          "type": "uint256"
        },
        {
          "indexed": false,
          "internalType": "string",
          "name": "timestamp",
          "type": "string"
        },
        {
          "indexed": false,
          "internalType": "string",
          "name": "desc",
          "type": "string"
        },
        {
          "indexed": false,
          "internalType": "string",
          "name": "entityType",
          "type": "string"
        },
        {
          "indexed": false,
          "internalType": "uint256",
          "name": "v1",
          "type": "uint256"
        },
        {
          "indexed": false,
          "internalType": "uint256",
          "name": "v2",
          "type": "uint256"
        },
        {
          "indexed": false,
          "internalType": "uint256",
          "name": "v3",
          "type": "uint256"
        },
        {
          "indexed": false,
          "internalType": "string",
          "name": "latitude",
          "type": "string"
        },
        {
          "indexed": false,
          "internalType": "string",
          "name": "longitude",
          "type": "string"
        }
      ],
      "name": "TaskCreated",
      "type": "event"
    },
    {
      "constant": true,
      "inputs": [],
      "name": "payload",
      "outputs": [
        {
          "internalType": "string",
          "name": "",
          "type": "string"
        }
      ],
      "payable": false,
      "stateMutability": "view",
      "type": "function"
    },
    {
      "constant": true,
      "inputs": [],
      "name": "taskCount",
      "outputs": [
        {
          "internalType": "uint256",
          "name": "",
          "type": "uint256"
        }
      ],
      "payable": false,
      "stateMutability": "view",
      "type": "function"
    },
    {
      "constant": true,
      "inputs": [
        {
          "internalType": "uint256",
          "name": "",
          "type": "uint256"
        }
      ],
      "name": "tasks",
      "outputs": [
        {
          "internalType": "uint256",
          "name": "id",
          "type": "uint256"
        },
        {
          "internalType": "string",
          "name": "timestamp",
          "type": "string"
        },
        {
          "internalType": "string",
          "name": "desc",
          "type": "string"
        },
        {
          "internalType": "string",
          "name": "entityType",
          "type": "string"
        },
        {
          "internalType": "uint256",
          "name": "v1",
          "type": "uint256"
        },
        {
          "internalType": "uint256",
          "name": "v2",
          "type": "uint256"
        },
        {
          "internalType": "uint256",
          "name": "v3",
          "type": "uint256"
        },
        {
          "internalType": "string",
          "name": "latitude",
          "type": "string"
        },
        {
          "internalType": "string",
          "name": "longitude",
          "type": "string"
        }
      ],
      "payable": false,
      "stateMutability": "view",
      "type": "function"
    },
    {
      "constant": false,
      "inputs": [
        {
          "internalType": "string",
          "name": "content",
          "type": "string"
        }
      ],
      "name": "setPayload",
      "outputs": [],
      "payable": false,
      "stateMutability": "nonpayable",
      "type": "function"
    },
    {
      "constant": false,
      "inputs": [
        {
          "internalType": "uint256",
          "name": "_id",
          "type": "uint256"
        },
        {
          "internalType": "string",
          "name": "_timestamp",
          "type": "string"
        },
        {
          "internalType": "string",
          "name": "_desc",
          "type": "string"
        },
        {
          "internalType": "string",
          "name": "_entityType",
          "type": "string"
        },
        {
          "internalType": "uint256",
          "name": "_v1",
          "type": "uint256"
        },
        {
          "internalType": "uint256",
          "name": "_v2",
          "type": "uint256"
        },
        {
          "internalType": "uint256",
          "name": "_v3",
          "type": "uint256"
        },
        {
          "internalType": "string",
          "name": "_latitude",
          "type": "string"
        },
        {
          "internalType": "string",
          "name": "_longitude",
          "type": "string"
        }
      ],
      "name": "createTask",
      "outputs": [],
      "payable": false,
      "stateMutability": "nonpayable",
      "type": "function"
    },
    {
      "constant": false,
      "inputs": [
        {
          "internalType": "uint256",
          "name": "_id",
          "type": "uint256"
        }
      ],
      "name": "toggleCompleted",
      "outputs": [],
      "payable": false,
      "stateMutability": "nonpayable",
      "type": "function"
    },
    {
      "constant": true,
      "inputs": [],
      "name": "sayHello",
      "outputs": [
        {
          "internalType": "string",
          "name": "",
          "type": "string"
        }
      ],
      "payable": false,
      "stateMutability": "pure",
      "type": "function"
    }
  ],
  "bytecode": "0x6080604052600080553480156200001557600080fd5b50620000d2600160405180604001604052806009815260200168074696d657374616d760bc1b815250604051806040016040528060048152602001636465736360e01b8152506040518060400160405280600a815260200169656e746974795479706560b01b8152506001806001604051806040016040528060088152602001676c6174697475646560c01b815250604051806040016040528060098152602001686c6f6e67697475646560b81b815250620000d860201b60201c565b62000503565b60008054600190810180835560408051610120810182528d815260208082018e81528284018e9052606083018d9052608083018c905260a083018b905260c083018a905260e08301899052610100830188905293865260028152919094208451815591518051929362000154939085019291909101906200045e565b5060408201518051620001729160028401916020909101906200045e565b5060608201518051620001909160038401916020909101906200045e565b506080820151600482015560a0820151600582015560c0820151600682015560e08201518051620001cc9160078401916020909101906200045e565b506101008201518051620001eb9160088401916020909101906200045e565b509050507fb138be247d5466bbf77bb2a130e7d67d5206208a705e1e0aeb450a5b51fff1c7898989898989898989604051808a8152602001806020018060200180602001898152602001888152602001878152602001806020018060200186810386528e818151815260200191508051906020019080838360005b838110156200028057818101518382015260200162000266565b50505050905090810190601f168015620002ae5780820380516001836020036101000a031916815260200191505b5086810385528d5181528d516020918201918f019080838360005b83811015620002e3578181015183820152602001620002c9565b50505050905090810190601f168015620003115780820380516001836020036101000a031916815260200191505b5086810384528c5181528c516020918201918e019080838360005b83811015620003465781810151838201526020016200032c565b50505050905090810190601f168015620003745780820380516001836020036101000a031916815260200191505b5086810383528851815288516020918201918a019080838360005b83811015620003a95781810151838201526020016200038f565b50505050905090810190601f168015620003d75780820380516001836020036101000a031916815260200191505b50868103825287518152875160209182019189019080838360005b838110156200040c578181015183820152602001620003f2565b50505050905090810190601f1680156200043a5780820380516001836020036101000a031916815260200191505b509e50505050505050505050505050505060405180910390a1505050505050505050565b828054600181600116156101000203166002900490600052602060002090601f016020900481019282601f10620004a157805160ff1916838001178555620004d1565b82800160010185558215620004d1579182015b82811115620004d1578251825591602001919060010190620004b4565b50620004df929150620004e3565b5090565b6200050091905b80821115620004df5760008155600101620004ea565b90565b610f1180620005136000396000f3fe608060405234801561001057600080fd5b506004361061007d5760003560e01c8063b6cb58a51161005b578063b6cb58a514610367578063d17e06d914610381578063e1ad769914610653578063ef5fb05b146106f75761007d565b8063455f5024146100825780638d977672146100a1578063a878f858146102ea575b600080fd5b61009f6004803603602081101561009857600080fd5b50356106ff565b005b6100be600480360360208110156100b757600080fd5b5035610702565b604051808a8152602001806020018060200180602001898152602001888152602001878152602001806020018060200186810386528e818151815260200191508051906020019080838360005b8381101561012357818101518382015260200161010b565b50505050905090810190601f1680156101505780820380516001836020036101000a031916815260200191505b5086810385528d5181528d516020918201918f019080838360005b8381101561018357818101518382015260200161016b565b50505050905090810190601f1680156101b05780820380516001836020036101000a031916815260200191505b5086810384528c5181528c516020918201918e019080838360005b838110156101e35781810151838201526020016101cb565b50505050905090810190601f1680156102105780820380516001836020036101000a031916815260200191505b5086810383528851815288516020918201918a019080838360005b8381101561024357818101518382015260200161022b565b50505050905090810190601f1680156102705780820380516001836020036101000a031916815260200191505b50868103825287518152875160209182019189019080838360005b838110156102a357818101518382015260200161028b565b50505050905090810190601f1680156102d05780820380516001836020036101000a031916815260200191505b509e50505050505050505050505050505060405180910390f35b6102f26109fe565b6040805160208082528351818301528351919283929083019185019080838360005b8381101561032c578181015183820152602001610314565b50505050905090810190601f1680156103595780820380516001836020036101000a031916815260200191505b509250505060405180910390f35b61036f610a8b565b60408051918252519081900360200190f35b61009f600480360361012081101561039857600080fd5b81359190810190604081016020820135600160201b8111156103b957600080fd5b8201836020820111156103cb57600080fd5b803590602001918460018302840111600160201b831117156103ec57600080fd5b91908080601f0160208091040260200160405190810160405280939291908181526020018383808284376000920191909152509295949360208101935035915050600160201b81111561043e57600080fd5b82018360208201111561045057600080fd5b803590602001918460018302840111600160201b8311171561047157600080fd5b91908080601f0160208091040260200160405190810160405280939291908181526020018383808284376000920191909152509295949360208101935035915050600160201b8111156104c357600080fd5b8201836020820111156104d557600080fd5b803590602001918460018302840111600160201b831117156104f657600080fd5b91908080601f0160208091040260200160405190810160405280939291908181526020018383808284376000920191909152509295843595602086013595604081013595509193509150608081019060600135600160201b81111561055a57600080fd5b82018360208201111561056c57600080fd5b803590602001918460018302840111600160201b8311171561058d57600080fd5b91908080601f0160208091040260200160405190810160405280939291908181526020018383808284376000920191909152509295949360208101935035915050600160201b8111156105df57600080fd5b8201836020820111156105f157600080fd5b803590602001918460018302840111600160201b8311171561061257600080fd5b91908080601f016020809104026020016040519081016040528093929190818152602001838380828437600092019190915250929550610a91945050505050565b61009f6004803603602081101561066957600080fd5b810190602081018135600160201b81111561068357600080fd5b82018360208201111561069557600080fd5b803590602001918460018302840111600160201b831117156106b657600080fd5b91908080601f016020809104026020016040519081016040528093929190818152602001838380828437600092019190915250929550610dfe945050505050565b6102f2610e15565b50565b60026020818152600092835260409283902080546001808301805487519281161561010002600019011695909504601f810185900485028201850190965285815290949193909290919083018282801561079d5780601f106107725761010080835404028352916020019161079d565b820191906000526020600020905b81548152906001019060200180831161078057829003601f168201915b50505060028085018054604080516020601f600019610100600187161502019094169590950492830185900485028101850190915281815295969594509092509083018282801561082f5780601f106108045761010080835404028352916020019161082f565b820191906000526020600020905b81548152906001019060200180831161081257829003601f168201915b5050505060038301805460408051602060026001851615610100026000190190941693909304601f81018490048402820184019092528181529495949350908301828280156108bf5780601f10610894576101008083540402835291602001916108bf565b820191906000526020600020905b8154815290600101906020018083116108a257829003601f168201915b505050600484015460058501546006860154600787018054604080516020601f600260001961010060018816150201909516949094049384018190048102820181019092528281529899959894975092955090918301828280156109645780601f1061093957610100808354040283529160200191610964565b820191906000526020600020905b81548152906001019060200180831161094757829003601f168201915b5050505060088301805460408051602060026001851615610100026000190190941693909304601f81018490048402820184019092528181529495949350908301828280156109f45780601f106109c9576101008083540402835291602001916109f4565b820191906000526020600020905b8154815290600101906020018083116109d757829003601f168201915b5050505050905089565b60018054604080516020600284861615610100026000190190941693909304601f81018490048402820184019092528181529291830182828015610a835780601f10610a5857610100808354040283529160200191610a83565b820191906000526020600020905b815481529060010190602001808311610a6657829003601f168201915b505050505081565b60005481565b60008054600190810180835560408051610120810182528d815260208082018e81528284018e9052606083018d9052608083018c905260a083018b905260c083018a905260e083018990526101008301889052938652600281529190942084518155915180519293610b0b93908501929190910190610e44565b5060408201518051610b27916002840191602090910190610e44565b5060608201518051610b43916003840191602090910190610e44565b506080820151600482015560a0820151600582015560c0820151600682015560e08201518051610b7d916007840191602090910190610e44565b506101008201518051610b9a916008840191602090910190610e44565b509050507fb138be247d5466bbf77bb2a130e7d67d5206208a705e1e0aeb450a5b51fff1c7898989898989898989604051808a8152602001806020018060200180602001898152602001888152602001878152602001806020018060200186810386528e818151815260200191508051906020019080838360005b83811015610c2d578181015183820152602001610c15565b50505050905090810190601f168015610c5a5780820380516001836020036101000a031916815260200191505b5086810385528d5181528d516020918201918f019080838360005b83811015610c8d578181015183820152602001610c75565b50505050905090810190601f168015610cba5780820380516001836020036101000a031916815260200191505b5086810384528c5181528c516020918201918e019080838360005b83811015610ced578181015183820152602001610cd5565b50505050905090810190601f168015610d1a5780820380516001836020036101000a031916815260200191505b5086810383528851815288516020918201918a019080838360005b83811015610d4d578181015183820152602001610d35565b50505050905090810190601f168015610d7a5780820380516001836020036101000a031916815260200191505b50868103825287518152875160209182019189019080838360005b83811015610dad578181015183820152602001610d95565b50505050905090810190601f168015610dda5780820380516001836020036101000a031916815260200191505b509e50505050505050505050505050505060405180910390a1505050505050505050565b8051610e11906001906020840190610e44565b5050565b6040805180820190915260148152732d2d5570646174656420436f6e74726163742d2d60601b60208201525b90565b828054600181600116156101000203166002900490600052602060002090601f016020900481019282601f10610e8557805160ff1916838001178555610eb2565b82800160010185558215610eb2579182015b82811115610eb2578251825591602001919060010190610e97565b50610ebe929150610ec2565b5090565b610e4191905b80821115610ebe5760008155600101610ec856fea265627a7a723158202b6ead20a31ca49905a7ba6a1263188c6aee817bc46afe8b55bd798c649fa3f464736f6c63430005100032",
  "source": "pragma solidity >= 0.5.0 < 0.7.0;\r\n\r\ncontract IoT {\r\n  uint public taskCount = 0;\r\n  string public payload;\r\n\r\n  function setPayload(string memory content) public {\r\n    payload = content;\r\n  }\r\n\r\n  struct Task {\r\n    uint id;\r\n    string timestamp;\r\n    string desc;\r\n    string entityType;\r\n    uint v1;\r\n    uint v2;\r\n    uint v3;\r\n    string latitude;\r\n    string longitude;\r\n  }\r\n\r\n  mapping(uint => Task) public tasks;\r\n\r\n  event TaskCreated(\r\n    uint id,\r\n    string timestamp,\r\n    string desc,\r\n    string entityType,\r\n    uint v1,\r\n    uint v2,\r\n    uint v3,\r\n    string latitude,\r\n    string longitude\r\n  );\r\n\r\n  event TaskCompleted(\r\n    uint id,\r\n    bool completed\r\n  );\r\n\r\n  constructor() public {\r\n    createTask(1, \"timestamp\", \"desc\", \"entityType\", 1, 1, 1, \"latitude\", \"longitude\");\r\n  }\r\n\r\n  function createTask(uint _id, string memory _timestamp, string memory _desc, string memory _entityType, uint _v1, uint _v2, uint _v3, string memory _latitude, string memory _longitude) public {\r\n    taskCount ++;\r\n    tasks[taskCount] = Task(_id, _timestamp, _desc, _entityType, _v1, _v2, _v3, _latitude, _longitude);\r\n    emit TaskCreated(_id, _timestamp, _desc, _entityType, _v1, _v2, _v3, _latitude, _longitude);\r\n  }\r\n\r\n  function toggleCompleted(uint _id) public {\r\n    //Task memory _task = tasks[_id];\r\n    //_task.completed = !_task.completed;\r\n    //tasks[_id] = _task;\r\n    //emit TaskCompleted(_id, _task.completed);\r\n  }\r\n\r\n  function sayHello() public pure returns (string memory) {\r\n        return '--Updated Contract--';\r\n  }\r\n}",
  "sourcePath": "C:\\Users\\Harley\\source\\repos\\blockchain.uat\\contracts\\IoT.sol",
  "compiler": {
    "name": "solc",
    "version": "0.5.16+commit.9c3226ce.Emscripten.clang"
  },
  "schemaVersion": "3.4.3",
  "updatedAt": "2021-10-20T07:48:01.109Z",
  "networkType": "ethereum",
  "devdoc": {
    "methods": {}
  },
  "userdoc": {
    "methods": {}
  }
}