{
  "contractName": "IoT",
  "abi": [
    {
      "inputs": [],
      "payable": false,
      "stateMutability": "nonpayable",
      "type": "constructor"
    },
    {
      "anonymous": false,
      "inputs": [
        {
          "indexed": false,
          "internalType": "uint256",
          "name": "id",
          "type": "uint256"
        },
        {
          "indexed": false,
          "internalType": "bool",
          "name": "completed",
          "type": "bool"
        }
      ],
      "name": "TaskCompleted",
      "type": "event"
    },
    {
      "anonymous": false,
      "inputs": [
        {
          "indexed": false,
          "internalType": "uint256",
          "name": "id",
          "type": "uint256"
        },
        {
          "indexed": false,
          "internalType": "string",
          "name": "timestamp",
          "type": "string"
        },
        {
          "indexed": false,
          "internalType": "string",
          "name": "desc",
          "type": "string"
        },
        {
          "indexed": false,
          "internalType": "string",
          "name": "entityType",
          "type": "string"
        },
        {
          "indexed": false,
          "internalType": "uint256",
          "name": "v1",
          "type": "uint256"
        },
        {
          "indexed": false,
          "internalType": "uint256",
          "name": "v2",
          "type": "uint256"
        },
        {
          "indexed": false,
          "internalType": "uint256",
          "name": "v3",
          "type": "uint256"
        },
        {
          "indexed": false,
          "internalType": "uint256",
          "name": "latitude",
          "type": "uint256"
        },
        {
          "indexed": false,
          "internalType": "uint256",
          "name": "longitude",
          "type": "uint256"
        }
      ],
      "name": "TaskCreated",
      "type": "event"
    },
    {
      "constant": true,
      "inputs": [],
      "name": "taskCount",
      "outputs": [
        {
          "internalType": "uint256",
          "name": "",
          "type": "uint256"
        }
      ],
      "payable": false,
      "stateMutability": "view",
      "type": "function"
    },
    {
      "constant": true,
      "inputs": [
        {
          "internalType": "uint256",
          "name": "",
          "type": "uint256"
        }
      ],
      "name": "tasks",
      "outputs": [
        {
          "internalType": "uint256",
          "name": "id",
          "type": "uint256"
        },
        {
          "internalType": "string",
          "name": "timestamp",
          "type": "string"
        },
        {
          "internalType": "string",
          "name": "desc",
          "type": "string"
        },
        {
          "internalType": "string",
          "name": "entityType",
          "type": "string"
        },
        {
          "internalType": "uint256",
          "name": "v1",
          "type": "uint256"
        },
        {
          "internalType": "uint256",
          "name": "v2",
          "type": "uint256"
        },
        {
          "internalType": "uint256",
          "name": "v3",
          "type": "uint256"
        },
        {
          "internalType": "uint256",
          "name": "latitude",
          "type": "uint256"
        },
        {
          "internalType": "uint256",
          "name": "longitude",
          "type": "uint256"
        }
      ],
      "payable": false,
      "stateMutability": "view",
      "type": "function"
    },
    {
      "constant": false,
      "inputs": [
        {
          "internalType": "uint256",
          "name": "_id",
          "type": "uint256"
        },
        {
          "internalType": "string",
          "name": "_timestamp",
          "type": "string"
        },
        {
          "internalType": "string",
          "name": "_desc",
          "type": "string"
        },
        {
          "internalType": "string",
          "name": "_entityType",
          "type": "string"
        },
        {
          "internalType": "uint256",
          "name": "_v1",
          "type": "uint256"
        },
        {
          "internalType": "uint256",
          "name": "_v2",
          "type": "uint256"
        },
        {
          "internalType": "uint256",
          "name": "_v3",
          "type": "uint256"
        },
        {
          "internalType": "uint256",
          "name": "_latitude",
          "type": "uint256"
        },
        {
          "internalType": "uint256",
          "name": "_longitude",
          "type": "uint256"
        }
      ],
      "name": "createTask",
      "outputs": [],
      "payable": false,
      "stateMutability": "nonpayable",
      "type": "function"
    },
    {
      "constant": false,
      "inputs": [
        {
          "internalType": "uint256",
          "name": "_id",
          "type": "uint256"
        }
      ],
      "name": "toggleCompleted",
      "outputs": [],
      "payable": false,
      "stateMutability": "nonpayable",
      "type": "function"
    }
  ],
  "bytecode": "0x6080604052600080553480156200001557600080fd5b50620000b360016040518060400160405280601c81526020017f54696d657374616d703a20546f6461792042616279204a6172766973000000008152506040518060400160405280600981526020016854657374206465736360b81b8152506040518060400160405280601081526020016f5465737420656e74697479207479706560801b81525060016002600360016002620000b960201b60201c565b620003f7565b60008054600190810180835560408051610120810182528d815260208082018e81528284018e9052606083018d9052608083018c905260a083018b905260c083018a905260e0830189905261010083018890529386528481529190942084518155915180519293620001349390850192919091019062000352565b50604082015180516200015291600284019160209091019062000352565b50606082015180516200017091600384019160209091019062000352565b506080820151816004015560a0820151816005015560c0820151816006015560e0820151816007015561010082015181600801559050507fd0b72bc928f400d7f106f16311c510914976496970c9550f2f9e48bdb343a53a898989898989898989604051808a815260200180602001806020018060200189815260200188815260200187815260200186815260200185815260200184810384528c818151815260200191508051906020019080838360005b838110156200023c57818101518382015260200162000222565b50505050905090810190601f1680156200026a5780820380516001836020036101000a031916815260200191505b5084810383528b5181528b516020918201918d019080838360005b838110156200029f57818101518382015260200162000285565b50505050905090810190601f168015620002cd5780820380516001836020036101000a031916815260200191505b5084810382528a5181528a516020918201918c019080838360005b8381101562000302578181015183820152602001620002e8565b50505050905090810190601f168015620003305780820380516001836020036101000a031916815260200191505b509c5050505050505050505050505060405180910390a1505050505050505050565b828054600181600116156101000203166002900490600052602060002090601f016020900481019282601f106200039557805160ff1916838001178555620003c5565b82800160010185558215620003c5579182015b82811115620003c5578251825591602001919060010190620003a8565b50620003d3929150620003d7565b5090565b620003f491905b80821115620003d35760008155600101620003de565b90565b61093180620004076000396000f3fe608060405234801561001057600080fd5b506004361061004c5760003560e01c806303fa138714610051578063455f5024146102265780638d97767214610243578063b6cb58a5146103ce575b600080fd5b610224600480360361012081101561006857600080fd5b8135919081019060408101602082013564010000000081111561008a57600080fd5b82018360208201111561009c57600080fd5b803590602001918460018302840111640100000000831117156100be57600080fd5b91908080601f016020809104026020016040519081016040528093929190818152602001838380828437600092019190915250929594936020810193503591505064010000000081111561011157600080fd5b82018360208201111561012357600080fd5b8035906020019184600183028401116401000000008311171561014557600080fd5b91908080601f016020809104026020016040519081016040528093929190818152602001838380828437600092019190915250929594936020810193503591505064010000000081111561019857600080fd5b8201836020820111156101aa57600080fd5b803590602001918460018302840111640100000000831117156101cc57600080fd5b91908080601f01602080910402602001604051908101604052809392919081815260200183838082843760009201919091525092955050823593505050602081013590604081013590606081013590608001356103e8565b005b6102246004803603602081101561023c57600080fd5b5035610672565b6102606004803603602081101561025957600080fd5b5035610675565b604051808a815260200180602001806020018060200189815260200188815260200187815260200186815260200185815260200184810384528c818151815260200191508051906020019080838360005b838110156102c95781810151838201526020016102b1565b50505050905090810190601f1680156102f65780820380516001836020036101000a031916815260200191505b5084810383528b5181528b516020918201918d019080838360005b83811015610329578181015183820152602001610311565b50505050905090810190601f1680156103565780820380516001836020036101000a031916815260200191505b5084810382528a5181528a516020918201918c019080838360005b83811015610389578181015183820152602001610371565b50505050905090810190601f1680156103b65780820380516001836020036101000a031916815260200191505b509c5050505050505050505050505060405180910390f35b6103d661085b565b60408051918252519081900360200190f35b60008054600190810180835560408051610120810182528d815260208082018e81528284018e9052606083018d9052608083018c905260a083018b905260c083018a905260e083018990526101008301889052938652848152919094208451815591518051929361046193908501929190910190610861565b506040820151805161047d916002840191602090910190610861565b5060608201518051610499916003840191602090910190610861565b506080820151816004015560a0820151816005015560c0820151816006015560e0820151816007015561010082015181600801559050507fd0b72bc928f400d7f106f16311c510914976496970c9550f2f9e48bdb343a53a898989898989898989604051808a815260200180602001806020018060200189815260200188815260200187815260200186815260200185815260200184810384528c818151815260200191508051906020019080838360005b8381101561056357818101518382015260200161054b565b50505050905090810190601f1680156105905780820380516001836020036101000a031916815260200191505b5084810383528b5181528b516020918201918d019080838360005b838110156105c35781810151838201526020016105ab565b50505050905090810190601f1680156105f05780820380516001836020036101000a031916815260200191505b5084810382528a5181528a516020918201918c019080838360005b8381101561062357818101518382015260200161060b565b50505050905090810190601f1680156106505780820380516001836020036101000a031916815260200191505b509c5050505050505050505050505060405180910390a1505050505050505050565b50565b600160208181526000928352604092839020805481840180548651600296821615610100026000190190911695909504601f810185900485028601850190965285855290949193929091908301828280156107115780601f106106e657610100808354040283529160200191610711565b820191906000526020600020905b8154815290600101906020018083116106f457829003601f168201915b50505060028085018054604080516020601f60001961010060018716150201909416959095049283018590048502810185019091528181529596959450909250908301828280156107a35780601f10610778576101008083540402835291602001916107a3565b820191906000526020600020905b81548152906001019060200180831161078657829003601f168201915b5050505060038301805460408051602060026001851615610100026000190190941693909304601f81018490048402820184019092528181529495949350908301828280156108335780601f1061080857610100808354040283529160200191610833565b820191906000526020600020905b81548152906001019060200180831161081657829003601f168201915b5050505050908060040154908060050154908060060154908060070154908060080154905089565b60005481565b828054600181600116156101000203166002900490600052602060002090601f016020900481019282601f106108a257805160ff19168380011785556108cf565b828001600101855582156108cf579182015b828111156108cf5782518255916020019190600101906108b4565b506108db9291506108df565b5090565b6108f991905b808211156108db57600081556001016108e5565b9056fea265627a7a72315820f52061e3dabb8f6a42737837c82ae9df8d35ece61700c74bc5db2ce1be5f59f964736f6c63430005100032",
  "source": "pragma solidity ^0.5.0;\r\n\r\ncontract IoT {\r\n  uint public taskCount = 0;\r\n\r\n  struct Task {\r\n    uint id;\r\n    string timestamp;\r\n    string desc;\r\n    string entityType;\r\n    uint v1;\r\n    uint v2;\r\n    uint v3;\r\n    uint latitude;\r\n    uint longitude;\r\n  }\r\n\r\n  mapping(uint => Task) public tasks;\r\n\r\n  event TaskCreated(\r\n    uint id,\r\n    string timestamp,\r\n    string desc,\r\n    string entityType,\r\n    uint v1,\r\n    uint v2,\r\n    uint v3,\r\n    uint latitude,\r\n    uint longitude\r\n  );\r\n\r\n  event TaskCompleted(\r\n    uint id,\r\n    bool completed\r\n  );\r\n\r\n  constructor() public {\r\n    createTask(1, \"Timestamp: Today Baby Jarvis\", \"Test desc\", \"Test entity type\", 1, 2, 3, 1, 2);\r\n  }\r\n\r\n  function createTask(uint _id, string memory _timestamp, string memory _desc, string memory _entityType, uint _v1, uint _v2, uint _v3, uint _latitude, uint _longitude) public {\r\n    taskCount ++;\r\n    tasks[taskCount] = Task(_id, _timestamp, _desc, _entityType, _v1, _v2, _v3, _latitude, _longitude);\r\n    emit TaskCreated(_id, _timestamp, _desc, _entityType, _v1, _v2, _v3, _latitude, _longitude);\r\n  }\r\n\r\n  function toggleCompleted(uint _id) public {\r\n    //Task memory _task = tasks[_id];\r\n    //_task.completed = !_task.completed;\r\n    //tasks[_id] = _task;\r\n    //emit TaskCompleted(_id, _task.completed);\r\n  }\r\n\r\n}\r\n",
  "sourcePath": "C:\\Users\\cob.edge.uat\\source\\repos\\blockchain.uat\\contracts\\IoT.sol",
  "compiler": {
    "name": "solc",
    "version": "0.5.16+commit.9c3226ce.Emscripten.clang"
  },
  "schemaVersion": "3.4.3",
  "updatedAt": "2021-08-15T06:47:57.996Z",
  "networkType": "ethereum",
  "devdoc": {
    "methods": {}
  },
  "userdoc": {
    "methods": {}
  }
}